{
  "contractName": "ShortNameClaims",
  "abi": [
    {
      "constant": true,
      "inputs": [],
      "name": "priceOracle",
      "outputs": [
        {
          "name": "",
          "type": "address"
        }
      ],
      "payable": false,
      "stateMutability": "view",
      "type": "function"
    },
    {
      "constant": true,
      "inputs": [],
      "name": "registrar",
      "outputs": [
        {
          "name": "",
          "type": "address"
        }
      ],
      "payable": false,
      "stateMutability": "view",
      "type": "function"
    },
    {
      "constant": false,
      "inputs": [],
      "name": "renounceOwnership",
      "outputs": [],
      "payable": false,
      "stateMutability": "nonpayable",
      "type": "function"
    },
    {
      "constant": true,
      "inputs": [],
      "name": "oracle",
      "outputs": [
        {
          "name": "",
          "type": "address"
        }
      ],
      "payable": false,
      "stateMutability": "view",
      "type": "function"
    },
    {
      "constant": true,
      "inputs": [],
      "name": "claimCount",
      "outputs": [
        {
          "name": "",
          "type": "uint256"
        }
      ],
      "payable": false,
      "stateMutability": "view",
      "type": "function"
    },
    {
      "constant": true,
      "inputs": [],
      "name": "owner",
      "outputs": [
        {
          "name": "",
          "type": "address"
        }
      ],
      "payable": false,
      "stateMutability": "view",
      "type": "function"
    },
    {
      "constant": true,
      "inputs": [],
      "name": "isOwner",
      "outputs": [
        {
          "name": "",
          "type": "bool"
        }
      ],
      "payable": false,
      "stateMutability": "view",
      "type": "function"
    },
    {
      "constant": true,
      "inputs": [],
      "name": "REGISTRATION_PERIOD",
      "outputs": [
        {
          "name": "",
          "type": "uint256"
        }
      ],
      "payable": false,
      "stateMutability": "view",
      "type": "function"
    },
    {
      "constant": true,
      "inputs": [
        {
          "name": "",
          "type": "bytes32"
        }
      ],
      "name": "claims",
      "outputs": [
        {
          "name": "labelHash",
          "type": "bytes32"
        },
        {
          "name": "claimant",
          "type": "address"
        },
        {
          "name": "paid",
          "type": "uint256"
        }
      ],
      "payable": false,
      "stateMutability": "view",
      "type": "function"
    },
    {
      "constant": false,
      "inputs": [
        {
          "name": "newOwner",
          "type": "address"
        }
      ],
      "name": "transferOwnership",
      "outputs": [],
      "payable": false,
      "stateMutability": "nonpayable",
      "type": "function"
    },
    {
      "inputs": [
        {
          "name": "_oracle",
          "type": "address"
        },
        {
          "name": "_priceOracle",
          "type": "address"
        },
        {
          "name": "_registrar",
          "type": "address"
        }
      ],
      "payable": false,
      "stateMutability": "nonpayable",
      "type": "constructor"
    },
    {
      "anonymous": false,
      "inputs": [
        {
          "indexed": false,
          "name": "claimed",
          "type": "string"
        },
        {
          "indexed": false,
          "name": "dnsname",
          "type": "bytes"
        },
        {
          "indexed": false,
          "name": "paid",
          "type": "uint256"
        }
      ],
      "name": "ClaimSubmitted",
      "type": "event",
      "_alias": "ClaimSubmitted"
    },
    {
      "anonymous": false,
      "inputs": [
        {
          "indexed": true,
          "name": "claimId",
          "type": "bytes32"
        }
      ],
      "name": "ClaimApproved",
      "type": "event",
      "_alias": "ClaimApproved"
    },
    {
      "anonymous": false,
      "inputs": [
        {
          "indexed": true,
          "name": "claimId",
          "type": "bytes32"
        }
      ],
      "name": "ClaimDeclined",
      "type": "event",
      "_alias": "ClaimDeclined"
    },
    {
      "anonymous": false,
      "inputs": [
        {
          "indexed": true,
          "name": "previousOwner",
          "type": "address"
        },
        {
          "indexed": true,
          "name": "newOwner",
          "type": "address"
        }
      ],
      "name": "OwnershipTransferred",
      "type": "event",
      "_alias": "OwnershipTransferred"
    },
    {
      "constant": true,
      "inputs": [
        {
          "name": "claimed",
          "type": "string"
        },
        {
          "name": "dnsname",
          "type": "bytes"
        }
      ],
      "name": "computeClaimId",
      "outputs": [
        {
          "name": "",
          "type": "bytes32"
        }
      ],
      "payable": false,
      "stateMutability": "pure",
      "type": "function"
    },
    {
      "constant": true,
      "inputs": [
        {
          "name": "claimed",
          "type": "string"
        }
      ],
      "name": "getClaimCost",
      "outputs": [
        {
          "name": "",
          "type": "uint256"
        }
      ],
      "payable": false,
      "stateMutability": "view",
      "type": "function"
    },
    {
      "constant": false,
      "inputs": [
        {
          "name": "name",
          "type": "bytes"
        },
        {
          "name": "input",
          "type": "bytes"
        },
        {
          "name": "proof",
          "type": "bytes"
        }
      ],
      "name": "submitExactClaim",
      "outputs": [],
      "payable": true,
      "stateMutability": "payable",
      "type": "function"
    },
    {
      "constant": false,
      "inputs": [
        {
          "name": "name",
          "type": "bytes"
        },
        {
          "name": "input",
          "type": "bytes"
        },
        {
          "name": "proof",
          "type": "bytes"
        }
      ],
      "name": "submitCombinedClaim",
      "outputs": [],
      "payable": true,
      "stateMutability": "payable",
      "type": "function"
    },
    {
      "constant": false,
      "inputs": [
        {
          "name": "name",
          "type": "bytes"
        },
        {
          "name": "input",
          "type": "bytes"
        },
        {
          "name": "proof",
          "type": "bytes"
        }
      ],
      "name": "submitPrefixClaim",
      "outputs": [],
      "payable": true,
      "stateMutability": "payable",
      "type": "function"
    },
    {
      "constant": false,
      "inputs": [
        {
          "name": "claimId",
          "type": "bytes32"
        }
      ],
      "name": "approveClaim",
      "outputs": [],
      "payable": false,
      "stateMutability": "nonpayable",
      "type": "function"
    },
    {
      "constant": false,
      "inputs": [
        {
          "name": "claimId",
          "type": "bytes32"
        }
      ],
      "name": "declineClaim",
      "outputs": [],
      "payable": false,
      "stateMutability": "nonpayable",
      "type": "function"
    }
  ],
  "bytecode": "0x608060405234801561001057600080fd5b50604051606080612fcd8339810180604052606081101561003057600080fd5b81019080805190602001909291908051906020019092919080519060200190929190505050336000806101000a81548173ffffffffffffffffffffffffffffffffffffffff021916908373ffffffffffffffffffffffffffffffffffffffff1602179055506000809054906101000a900473ffffffffffffffffffffffffffffffffffffffff1673ffffffffffffffffffffffffffffffffffffffff16600073ffffffffffffffffffffffffffffffffffffffff167f8be0079c531659141344cd1fd0a4f28419497f9722a3daafe3b4186f6b6457e060405160405180910390a382600160006101000a81548173ffffffffffffffffffffffffffffffffffffffff021916908373ffffffffffffffffffffffffffffffffffffffff16021790555081600260006101000a81548173ffffffffffffffffffffffffffffffffffffffff021916908373ffffffffffffffffffffffffffffffffffffffff16021790555080600360006101000a81548173ffffffffffffffffffffffffffffffffffffffff021916908373ffffffffffffffffffffffffffffffffffffffff160217905550505050612de7806101e66000396000f3fe6080604052600436106100f1576000357c0100000000000000000000000000000000000000000000000000000000900463ffffffff1680630ee56360146100f65780632630c12f146102df5780632b20e397146103365780633719f0961461038d57806365e3f8fa146103c8578063715018a6146104a4578063783b6197146104bb5780637dc0d1d01461062e5780638da4d3c9146106855780638da5cb5b146106b05780638f32d59b146107075780639c00f8e614610736578063a550eea414610771578063e0f540971461095a578063ec21f00614610985578063eff0f59214610b6e578063f2fde38b14610bf7575b600080fd5b6102dd6004803603606081101561010c57600080fd5b810190808035906020019064010000000081111561012957600080fd5b82018360208201111561013b57600080fd5b8035906020019184600183028401116401000000008311171561015d57600080fd5b91908080601f016020809104026020016040519081016040528093929190818152602001838380828437600081840152601f19601f820116905080830192505050505050509192919290803590602001906401000000008111156101c057600080fd5b8201836020820111156101d257600080fd5b803590602001918460018302840111640100000000831117156101f457600080fd5b91908080601f016020809104026020016040519081016040528093929190818152602001838380828437600081840152601f19601f8201169050808301925050505050505091929192908035906020019064010000000081111561025757600080fd5b82018360208201111561026957600080fd5b8035906020019184600183028401116401000000008311171561028b57600080fd5b91908080601f016020809104026020016040519081016040528093929190818152602001838380828437600081840152601f19601f820116905080830192505050505050509192919290505050610c48565b005b3480156102eb57600080fd5b506102f4610cdb565b604051808273ffffffffffffffffffffffffffffffffffffffff1673ffffffffffffffffffffffffffffffffffffffff16815260200191505060405180910390f35b34801561034257600080fd5b5061034b610d01565b604051808273ffffffffffffffffffffffffffffffffffffffff1673ffffffffffffffffffffffffffffffffffffffff16815260200191505060405180910390f35b34801561039957600080fd5b506103c6600480360360208110156103b057600080fd5b8101908080359060200190929190505050610d27565b005b3480156103d457600080fd5b5061048e600480360360208110156103eb57600080fd5b810190808035906020019064010000000081111561040857600080fd5b82018360208201111561041a57600080fd5b8035906020019184600183028401116401000000008311171561043c57600080fd5b91908080601f016020809104026020016040519081016040528093929190818152602001838380828437600081840152601f19601f8201169050808301925050505050505091929192905050506110fc565b6040518082815260200191505060405180910390f35b3480156104b057600080fd5b506104b9611249565b005b3480156104c757600080fd5b50610618600480360360408110156104de57600080fd5b81019080803590602001906401000000008111156104fb57600080fd5b82018360208201111561050d57600080fd5b8035906020019184600183028401116401000000008311171561052f57600080fd5b91908080601f016020809104026020016040519081016040528093929190818152602001838380828437600081840152601f19601f8201169050808301925050505050505091929192908035906020019064010000000081111561059257600080fd5b8201836020820111156105a457600080fd5b803590602001918460018302840111640100000000831117156105c657600080fd5b91908080601f016020809104026020016040519081016040528093929190818152602001838380828437600081840152601f19601f82011690508083019250505050505050919291929050505061131b565b6040518082815260200191505060405180910390f35b34801561063a57600080fd5b506106436113ee565b604051808273ffffffffffffffffffffffffffffffffffffffff1673ffffffffffffffffffffffffffffffffffffffff16815260200191505060405180910390f35b34801561069157600080fd5b5061069a611414565b6040518082815260200191505060405180910390f35b3480156106bc57600080fd5b506106c561141a565b604051808273ffffffffffffffffffffffffffffffffffffffff1673ffffffffffffffffffffffffffffffffffffffff16815260200191505060405180910390f35b34801561071357600080fd5b5061071c611443565b604051808215151515815260200191505060405180910390f35b34801561074257600080fd5b5061076f6004803603602081101561075957600080fd5b810190808035906020019092919050505061149a565b005b6109586004803603606081101561078757600080fd5b81019080803590602001906401000000008111156107a457600080fd5b8201836020820111156107b657600080fd5b803590602001918460018302840111640100000000831117156107d857600080fd5b91908080601f016020809104026020016040519081016040528093929190818152602001838380828437600081840152601f19601f8201169050808301925050505050505091929192908035906020019064010000000081111561083b57600080fd5b82018360208201111561084d57600080fd5b8035906020019184600183028401116401000000008311171561086f57600080fd5b91908080601f016020809104026020016040519081016040528093929190818152602001838380828437600081840152601f19601f820116905080830192505050505050509192919290803590602001906401000000008111156108d257600080fd5b8201836020820111156108e457600080fd5b8035906020019184600183028401116401000000008311171561090657600080fd5b91908080601f016020809104026020016040519081016040528093929190818152602001838380828437600081840152601f19601f82011690508083019250505050505050919291929050505061169c565b005b34801561096657600080fd5b5061096f61171a565b6040518082815260200191505060405180910390f35b610b6c6004803603606081101561099b57600080fd5b81019080803590602001906401000000008111156109b857600080fd5b8201836020820111156109ca57600080fd5b803590602001918460018302840111640100000000831117156109ec57600080fd5b91908080601f016020809104026020016040519081016040528093929190818152602001838380828437600081840152601f19601f82011690508083019250505050505050919291929080359060200190640100000000811115610a4f57600080fd5b820183602082011115610a6157600080fd5b80359060200191846001830284011164010000000083111715610a8357600080fd5b91908080601f016020809104026020016040519081016040528093929190818152602001838380828437600081840152601f19601f82011690508083019250505050505050919291929080359060200190640100000000811115610ae657600080fd5b820183602082011115610af857600080fd5b80359060200191846001830284011164010000000083111715610b1a57600080fd5b91908080601f016020809104026020016040519081016040528093929190818152602001838380828437600081840152601f19601f820116905080830192505050505050509192919290505050611722565b005b348015610b7a57600080fd5b50610ba760048036036020811015610b9157600080fd5b8101908080359060200190929190505050611743565b604051808481526020018373ffffffffffffffffffffffffffffffffffffffff1673ffffffffffffffffffffffffffffffffffffffff168152602001828152602001935050505060405180910390f35b348015610c0357600080fd5b50610c4660048036036020811015610c1a57600080fd5b81019080803573ffffffffffffffffffffffffffffffffffffffff16906020019092919050505061178d565b005b6060610c558460006117ac565b9050610ca560038251036040805190810160405280600381526020017f6574680000000000000000000000000000000000000000000000000000000000815250836118709092919063ffffffff16565b1515610cb057600080fd5b610cd5610ccd600060038451038461189a9092919063ffffffff16565b85858561190f565b50505050565b600260009054906101000a900473ffffffffffffffffffffffffffffffffffffffff1681565b600360009054906101000a900473ffffffffffffffffffffffffffffffffffffffff1681565b610d2f611443565b1515610d3a57600080fd5b610d42612d1a565b6004600083815260200190815260200160002060606040519081016040529081600082015481526020016001820160009054906101000a900473ffffffffffffffffffffffffffffffffffffffff1673ffffffffffffffffffffffffffffffffffffffff1673ffffffffffffffffffffffffffffffffffffffff168152602001600282015481525050905060008160400151111515610e49576040517f08c379a000000000000000000000000000000000000000000000000000000000815260040180806020018281038252600f8152602001807f436c61696d206e6f7420666f756e64000000000000000000000000000000000081525060200191505060405180910390fd5b60056000815480929190600190039190505550600460008381526020019081526020016000206000808201600090556001820160006101000a81549073ffffffffffffffffffffffffffffffffffffffff021916905560028201600090555050817fd2c2344dc15f69e429f80fd1fd21612bcc0338606f874a93851905c9c75f58e760405160405180910390a2600360009054906101000a900473ffffffffffffffffffffffffffffffffffffffff1673ffffffffffffffffffffffffffffffffffffffff1663fca247ac82600001516001900483602001516301e133806040518463ffffffff167c0100000000000000000000000000000000000000000000000000000000028152600401808481526020018373ffffffffffffffffffffffffffffffffffffffff1673ffffffffffffffffffffffffffffffffffffffff1681526020018281526020019350505050602060405180830381600087803b158015610fb357600080fd5b505af1158015610fc7573d6000803e3d6000fd5b505050506040513d6020811015610fdd57600080fd5b810190808051906020019092919050505050600360009054906101000a900473ffffffffffffffffffffffffffffffffffffffff1673ffffffffffffffffffffffffffffffffffffffff16638da5cb5b6040518163ffffffff167c010000000000000000000000000000000000000000000000000000000002815260040160206040518083038186803b15801561107357600080fd5b505afa158015611087573d6000803e3d6000fd5b505050506040513d602081101561109d57600080fd5b810190808051906020019092919050505073ffffffffffffffffffffffffffffffffffffffff166108fc82604001519081150290604051600060405180830381858888f193505050501580156110f7573d6000803e3d6000fd5b505050565b6000600260009054906101000a900473ffffffffffffffffffffffffffffffffffffffff1673ffffffffffffffffffffffffffffffffffffffff166350e9a7158360006301e133806040518463ffffffff167c01000000000000000000000000000000000000000000000000000000000281526004018080602001848152602001838152602001828103825285818151815260200191508051906020019080838360005b838110156111bb5780820151818401526020810190506111a0565b50505050905090810190601f1680156111e85780820380516001836020036101000a031916815260200191505b5094505050505060206040518083038186803b15801561120757600080fd5b505afa15801561121b573d6000803e3d6000fd5b505050506040513d602081101561123157600080fd5b81019080805190602001909291905050509050919050565b611251611443565b151561125c57600080fd5b600073ffffffffffffffffffffffffffffffffffffffff166000809054906101000a900473ffffffffffffffffffffffffffffffffffffffff1673ffffffffffffffffffffffffffffffffffffffff167f8be0079c531659141344cd1fd0a4f28419497f9722a3daafe3b4186f6b6457e060405160405180910390a360008060006101000a81548173ffffffffffffffffffffffffffffffffffffffff021916908373ffffffffffffffffffffffffffffffffffffffff160217905550565b600082826040516020018083805190602001908083835b6020831015156113575780518252602082019150602081019050602083039250611332565b6001836020036101000a03801982511681845116808217855250505050505090500182805190602001908083835b6020831015156113aa5780518252602082019150602081019050602083039250611385565b6001836020036101000a0380198251168184511680821785525050505050509050019250505060405160208183030381529060405280519060200120905092915050565b600160009054906101000a900473ffffffffffffffffffffffffffffffffffffffff1681565b60055481565b60008060009054906101000a900473ffffffffffffffffffffffffffffffffffffffff16905090565b60008060009054906101000a900473ffffffffffffffffffffffffffffffffffffffff1673ffffffffffffffffffffffffffffffffffffffff163373ffffffffffffffffffffffffffffffffffffffff1614905090565b6114a2611443565b15156114ad57600080fd5b6114b5612d1a565b6004600083815260200190815260200160002060606040519081016040529081600082015481526020016001820160009054906101000a900473ffffffffffffffffffffffffffffffffffffffff1673ffffffffffffffffffffffffffffffffffffffff1673ffffffffffffffffffffffffffffffffffffffff1681526020016002820154815250509050600081604001511115156115bc576040517f08c379a000000000000000000000000000000000000000000000000000000000815260040180806020018281038252600f8152602001807f436c61696d206e6f7420666f756e64000000000000000000000000000000000081525060200191505060405180910390fd5b60056000815480929190600190039190505550600460008381526020019081526020016000206000808201600090556001820160006101000a81549073ffffffffffffffffffffffffffffffffffffffff021916905560028201600090555050817fbc475562e95af392041cf3515532c18cfb7337d8f9d500efa1ec8d5d6edbd94d60405160405180910390a2806020015173ffffffffffffffffffffffffffffffffffffffff166108fc82604001519081150290604051600060405180830381858888f19350505050158015611697573d6000803e3d6000fd5b505050565b60606116a98460006117ac565b905060606116b88560016117ac565b90506116c2612d55565b6116d9825184510182611fd790919063ffffffff16565b506116ed838261203190919063ffffffff16565b50611701828261203190919063ffffffff16565b50611712816000015187878761190f565b505050505050565b6301e1338081565b606061172f8460006117ac565b905061173d8185858561190f565b50505050565b60046020528060005260406000206000915090508060000154908060010160009054906101000a900473ffffffffffffffffffffffffffffffffffffffff16908060020154905083565b611795611443565b15156117a057600080fd5b6117a981612053565b50565b6060600080905060008090505b8381101561180f578451821015156117e55760206040519081016040528060008152509250505061186a565b60016117fa838761214d90919063ffffffff16565b0160ff168201915080806001019150506117b9565b5083518110151561183357602060405190810160405280600081525091505061186a565b6000611848828661214d90919063ffffffff16565b60ff16905061186560018301828761189a9092919063ffffffff16565b925050505b92915050565b6000815183018451101580156118915750611890848484600086516121d3565b5b90509392505050565b60608351828401111515156118ae57600080fd5b6060826040519080825280601f01601f1916602001820160405280156118e35781602001600182028038833980820191505090505b50905060008060208301915085602088010190506119028282876121f7565b8293505050509392505050565b600061191a85612242565b90506003811015801561192e575060068111155b151561193957600080fd5b6000611945868661131b565b9050600060046000838152602001908152602001600020600201541415156119d5576040517f08c379a00000000000000000000000000000000000000000000000000000000081526004018080602001828103825260178152602001807f436c61696d20616c7265616479207375626d697474656400000000000000000081525060200191505060405180910390fd5b60006119e28660026117ac565b51141515611a58576040517f08c379a00000000000000000000000000000000000000000000000000000000081526004018080602001828103825260128152602001807f4e616d65206d757374206265206120324c44000000000000000000000000000081525060200191505060405180910390fd5b6000611a63876110fc565b9050803410151515611b03576040517f08c379a00000000000000000000000000000000000000000000000000000000081526004018080602001828103825260228152602001807f496e73756666696369656e742066756e647320666f722072657365727661746981526020017f6f6e00000000000000000000000000000000000000000000000000000000000081525060400191505060405180910390fd5b80341115611b55573373ffffffffffffffffffffffffffffffffffffffff166108fc8234039081150290604051600060405180830381858888f19350505050158015611b53573d6000803e3d6000fd5b505b600085511115611d5657600160009054906101000a900473ffffffffffffffffffffffffffffffffffffffff1673ffffffffffffffffffffffffffffffffffffffff166376a14d1d86866040518363ffffffff167c0100000000000000000000000000000000000000000000000000000000028152600401808060200180602001838103835285818151815260200191508051906020019080838360005b83811015611c0e578082015181840152602081019050611bf3565b50505050905090810190601f168015611c3b5780820380516001836020036101000a031916815260200191505b50838103825284818151815260200191508051906020019080838360005b83811015611c74578082015181840152602081019050611c59565b50505050905090810190601f168015611ca15780820380516001836020036101000a031916815260200191505b50945050505050600060405180830381600087803b158015611cc257600080fd5b505af1158015611cd6573d6000803e3d6000fd5b505050506040513d6000823e3d601f19601f820116820180604052506020811015611d0057600080fd5b810190808051640100000000811115611d1857600080fd5b82810190506020810184811115611d2e57600080fd5b8151856001820283011164010000000082111715611d4b57600080fd5b505092919050505093505b600080611d86600160009054906101000a900473ffffffffffffffffffffffffffffffffffffffff168988612496565b91509150801515611dff576040517f08c379a00000000000000000000000000000000000000000000000000000000081526004018080602001828103825260138152602001807f4e6f20444e53207265636f726420666f756e640000000000000000000000000081525060200191505060405180910390fd5b6060604051908101604052808a8051906020012081526020018373ffffffffffffffffffffffffffffffffffffffff16815260200184815250600460008681526020019081526020016000206000820151816000015560208201518160010160006101000a81548173ffffffffffffffffffffffffffffffffffffffff021916908373ffffffffffffffffffffffffffffffffffffffff160217905550604082015181600201559050506005600081548092919060010191905055507fee9c69e8152ff23e3c62ec727f2109889450829e8cce7d531fee1377bcd44942898985604051808060200180602001848152602001838103835286818151815260200191508051906020019080838360005b83811015611f29578082015181840152602081019050611f0e565b50505050905090810190601f168015611f565780820380516001836020036101000a031916815260200191505b50838103825285818151815260200191508051906020019080838360005b83811015611f8f578082015181840152602081019050611f74565b50505050905090810190601f168015611fbc5780820380516001836020036101000a031916815260200191505b509550505050505060405180910390a1505050505050505050565b611fdf612d55565b6000602083811515611fed57fe5b0614151561200a5760208281151561200157fe5b06602003820191505b81836020018181525050604051808452600081528281016020016040525082905092915050565b612039612d55565b61204b8384600001515184855161281c565b905092915050565b600073ffffffffffffffffffffffffffffffffffffffff168173ffffffffffffffffffffffffffffffffffffffff161415151561208f57600080fd5b8073ffffffffffffffffffffffffffffffffffffffff166000809054906101000a900473ffffffffffffffffffffffffffffffffffffffff1673ffffffffffffffffffffffffffffffffffffffff167f8be0079c531659141344cd1fd0a4f28419497f9722a3daafe3b4186f6b6457e060405160405180910390a3806000806101000a81548173ffffffffffffffffffffffffffffffffffffffff021916908373ffffffffffffffffffffffffffffffffffffffff16021790555050565b6000828281518110151561215d57fe5b9060200101517f010000000000000000000000000000000000000000000000000000000000000090047f0100000000000000000000000000000000000000000000000000000000000000027f01000000000000000000000000000000000000000000000000000000000000009004905092915050565b60006121e08484846128d9565b6121eb8787856128d9565b14905095945050505050565b5b60208110151561221d57815183526020830192506020820191506020810390506121f8565b60006001826020036101000a0390508019835116818551168181178652505050505050565b6000806000809050600084519050600092505b8082101561248b576000858381518110151561226d57fe5b9060200101517f010000000000000000000000000000000000000000000000000000000000000090047f010000000000000000000000000000000000000000000000000000000000000002905060807f010000000000000000000000000000000000000000000000000000000000000002817effffffffffffffffffffffffffffffffffffffffffffffffffffffffffffff191610156123125760018301925061247d565b60e07f010000000000000000000000000000000000000000000000000000000000000002817effffffffffffffffffffffffffffffffffffffffffffffffffffffffffffff1916101561236a5760028301925061247c565b60f07f010000000000000000000000000000000000000000000000000000000000000002817effffffffffffffffffffffffffffffffffffffffffffffffffffffffffffff191610156123c25760038301925061247b565b60f87f010000000000000000000000000000000000000000000000000000000000000002817effffffffffffffffffffffffffffffffffffffffffffffffffffffffffffff1916101561241a5760048301925061247a565b60fc7f010000000000000000000000000000000000000000000000000000000000000002817effffffffffffffffffffffffffffffffffffffffffffffffffffffffffffff1916101561247257600583019250612479565b6006830192505b5b5b5b5b508280600101935050612255565b829350505050919050565b6000806124a1612d55565b6124b8600586510182611fd790919063ffffffff16565b506125016040805190810160405280600581526020017f045f656e730000000000000000000000000000000000000000000000000000008152508261203190919063ffffffff16565b50612515858261203190919063ffffffff16565b506000808773ffffffffffffffffffffffffffffffffffffffff1663087991bc601085600001516040518363ffffffff167c0100000000000000000000000000000000000000000000000000000000028152600401808361ffff1661ffff16815260200180602001828103825283818151815260200191508051906020019080838360005b838110156125b557808201518184015260208101905061259a565b50505050905090810190601f1680156125e25780820380516001836020036101000a031916815260200191505b50935050505060606040518083038186803b15801561260057600080fd5b505afa158015612614573d6000803e3d6000fd5b505050506040513d606081101561262a57600080fd5b81019080805190602001909291908051906020019092919080519060200190929190505050909150809350819250505060006c01000000000000000000000000026bffffffffffffffffffffffff1916826bffffffffffffffffffffffff1916148015612698575060008651145b156126af5760008081915094509450505050612814565b85805190602001206bffffffffffffffffffffffff1916826bffffffffffffffffffffffff19161415156126e257600080fd5b6126ea612d6f565b6126fe6000886128fe90919063ffffffff16565b90505b61270a81612928565b15156128055742816080015163ffffffff16830167ffffffffffffffff16101515156127c4576040517f08c379a000000000000000000000000000000000000000000000000000000000815260040180806020018281038252603c8152602001807f444e53207265636f7264206973207374616c653b2072656672657368206f722081526020017f64656c657465206974206265666f72652070726f63656564696e672e0000000081525060400191505060405180910390fd5b6000806127d5898460a0015161293e565b809350819250505081156127f55780600197509750505050505050612814565b5050612800816129b5565b612701565b50600080819150945094505050505b935093915050565b612824612d55565b8251821115151561283457600080fd5b8460200151828501111561285f5761285e8560026128588860200151888701612acb565b02612ae7565b5b60008086518051876020830101935080888701111561287e5787860182525b60208701925050505b6020841015156128ac5780518252602082019150602081019050602084039350612887565b60006001856020036101000a03905080198251168184511681811785525050879350505050949350505050565b60008351828401111515156128ed57600080fd5b818360208601012090509392505050565b612906612d6f565b828160000181905250818160c0018181525050612922816129b5565b92915050565b6000816000015151826020015110159050919050565b6000805b83518310156129a3576000612960848661214d90919063ffffffff16565b60ff169050600184019350600080612979878785612b0b565b8093508192505050811561299657806001945094505050506129ae565b8286019550505050612942565b600080819150915091505b9250929050565b8060c0015181602001818152505080600001515181602001511015156129da57612ac8565b60006129ee82600001518360200151612b74565b8260200151019050612a0d818360000151612bd190919063ffffffff16565b826040019061ffff16908161ffff1681525050600281019050612a3d818360000151612bd190919063ffffffff16565b826060019061ffff16908161ffff1681525050600281019050612a6d818360000151612bf990919063ffffffff16565b826080019063ffffffff16908163ffffffff16815250506004810190506000612aa3828460000151612bd190919063ffffffff16565b61ffff169050600282019150818360a00181815250508082018360c001818152505050505b50565b600081831115612add57829050612ae1565b8190505b92915050565b606082600001519050612afa8383611fd7565b50612b058382612031565b50505050565b60008063613d3078612b268587612bf990919063ffffffff16565b63ffffffff16141515612b425760008081915091509150612b6c565b602c831015612b5a5760008081915091509150612b6c565b612b678560048601612c23565b915091505b935093915050565b6000808290505b600115612bc557835181101515612b8e57fe5b6000612ba3828661214d90919063ffffffff16565b60ff16905060018101820191506000811415612bbf5750612bc5565b50612b7b565b82810391505092915050565b600082516002830111151515612be657600080fd5b61ffff8260028501015116905092915050565b600082516004830111151515612c0e57600080fd5b63ffffffff8260048501015116905092915050565b6000806028838551031015612c415760008081915091509150612d13565b600080905060008490505b60288501811015612d06576004829060020a0291506000612c76828861214d90919063ffffffff16565b60ff16905060308110158015612c8c5750603a81105b15612c9e576030810383179250612cf8565b60418110158015612caf5750604781105b15612cc1576037810383179250612cf7565b60618110158015612cd25750606781105b15612ce4576057810383179250612cf6565b60008081915094509450505050612d13565b5b5b508080600101915050612c4c565b5080600181915092509250505b9250929050565b60606040519081016040528060008019168152602001600073ffffffffffffffffffffffffffffffffffffffff168152602001600081525090565b604080519081016040528060608152602001600081525090565b60e0604051908101604052806060815260200160008152602001600061ffff168152602001600061ffff168152602001600063ffffffff1681526020016000815260200160008152509056fea165627a7a723058208a0aa7379f5e048e8174a39759e160e2613ac7ef78baa083c91804d9c5a19f6f0029",
  "source": "pragma solidity ^0.5.0;\n\nimport \"@ensdomains/dnssec-oracle/contracts/DNSSEC.sol\";\nimport \"@ensdomains/dnssec-oracle/contracts/BytesUtils.sol\";\nimport \"@ensdomains/dnsregistrar/contracts/DNSClaimChecker.sol\";\nimport \"@ensdomains/buffer/contracts/Buffer.sol\";\nimport \"./BaseRegistrar.sol\";\nimport \"./StringUtils.sol\";\nimport \"./PriceOracle.sol\";\nimport \"openzeppelin-solidity/contracts/ownership/Ownable.sol\";\n\n/**\n * @dev ShortNameClaims is a contract that permits people to register claims\n *      for short (3-6 character) ENS names ahead of the auction process.\n *\n *      Anyone with a DNS name registered before January 1, 2019, may use this\n *      name to support a claim for a matching ENS name. In the event that\n *      multiple claimants request the same name, the name will be assigned to\n *      the oldest registered DNS name.\n *\n *      Claims may be submitted by calling `submitExactClaim`,\n *      `submitCombinedClaim` or `submitPrefixClaim` as appropriate.\n *\n *      Claims require lodging a deposit equivalent to 365 days' registration of\n *      the name. If the claim is approved, this deposit is spent, and the name\n *      is registered for the claimant for 365 days. If the claim is declined,\n *      the deposit will be returned.\n */\ncontract ShortNameClaims is Ownable {\n    uint constant public REGISTRATION_PERIOD = 31536000;\n\n    using StringUtils for string;\n    using BytesUtils for bytes;\n    using Buffer for Buffer.buffer;\n\n    struct Claim {\n        bytes32 labelHash;\n        address claimant;\n        uint paid;\n    }\n\n    DNSSEC public oracle;\n    PriceOracle public priceOracle;\n    BaseRegistrar public registrar;\n    mapping(bytes32=>Claim) public claims;\n    uint public claimCount;\n\n    event ClaimSubmitted(string claimed, bytes dnsname, uint paid);\n    event ClaimApproved(bytes32 indexed claimId);\n    event ClaimDeclined(bytes32 indexed claimId);\n\n    constructor(DNSSEC _oracle, PriceOracle _priceOracle, BaseRegistrar _registrar) public {\n        oracle = _oracle;\n        priceOracle = _priceOracle;\n        registrar = _registrar;\n    }\n\n    /**\n     * @dev Computes the claim ID for a submitted claim, so it can be looked up\n     *      using `claims`.\n     * @param claimed The name being claimed (eg, 'foo')\n     * @param dnsname The DNS-encoded name supporting the claim (eg, 'foo.test')\n     * @return The claim ID.\n     */\n    function computeClaimId(string memory claimed, bytes memory dnsname) public pure returns(bytes32) {\n        return keccak256(abi.encodePacked(claimed, dnsname));\n    }\n\n    /**\n     * @dev Returns the cost associated with placing a claim.\n     * @param claimed The name being claimed.\n     * @return The cost in wei for this claim.\n     */\n    function getClaimCost(string memory claimed) public view returns(uint) {\n        return priceOracle.price(claimed, 0, REGISTRATION_PERIOD);\n    }\n\n    /**\n     * @dev Submits a claim for an exact match (eg, foo.test -> foo.eth).\n     *      Claimants must provide an amount of ether equal to 365 days'\n     *      registration cost; call `getClaimCost` to determine this amount.\n     *      Claimants should supply a little extra in case of variation in price;\n     *      any excess will be returned to the sender.\n     * @param name The DNS-encoded name of the domain being used to support the\n     *             claim.\n     * @param input Zero or more DNSSEC-signed RRSETs, in the format expected by\n     *              the DNSSEC oracle (https://github.com/ensdomains/dnssec-oracle/blob/0577b077a2e5454b4eb120cba595c69cf214b3b9/contracts/DNSSECImpl.sol#L129).\n     *              To be valid, the first entry must build off `proof`, and\n     *              the last entry must be a TXT record on `'_ens.' + name`.\n     *              If `input` is the empty string, `proof` is assumed to be the\n     *              required TXT record, and already known to the oracle.\n     * @param proof An RRSET already known to the DNSSEC oracle. If `input` is\n     *              supplied, this RRSET must validate the first entry of `input`.\n     *              If `input` is not supplied, this RRSET must be a TXT record\n     *              known to the oracle on `'_ens.' + name`, in the format\n     *              `a=0x...`.\n     */\n    function submitExactClaim(bytes memory name, bytes memory input, bytes memory proof) public payable {\n        string memory claimed = getLabel(name, 0);\n        handleClaim(claimed, name, input, proof);\n    }\n\n    /**\n     * @dev Submits a claim for an exact match (eg, foo.tv -> footv).\n     *      Claimants must provide an amount of ether equal to 365 days'\n     *      registration cost; call `getClaimCost` to determine this amount.\n     *      Claimants should supply a little extra in case of variation in price;\n     *      any excess will be returned to the sender.\n     * @param name The DNS-encoded name of the domain being used to support the\n     *             claim.\n     * @param input Zero or more DNSSEC-signed RRSETs, in the format expected by\n     *              the DNSSEC oracle (https://github.com/ensdomains/dnssec-oracle/blob/0577b077a2e5454b4eb120cba595c69cf214b3b9/contracts/DNSSECImpl.sol#L129).\n     *              To be valid, the first entry must build off `proof`, and\n     *              the last entry must be a TXT record on `'_ens.' + name`.\n     *              If `input` is the empty string, `proof` is assumed to be the\n     *              required TXT record, and already known to the oracle.\n     * @param proof An RRSET already known to the DNSSEC oracle. If `input` is\n     *              supplied, this RRSET must validate the first entry of `input`.\n     *              If `input` is not supplied, this RRSET must be a TXT record\n     *              known to the oracle on `'_ens.' + name`, in the format\n     *              `a=0x...`.\n     */\n    function submitCombinedClaim(bytes memory name, bytes memory input, bytes memory proof) public payable {\n        bytes memory firstLabel = bytes(getLabel(name, 0));\n        bytes memory secondLabel = bytes(getLabel(name, 1));\n        Buffer.buffer memory buf;\n        buf.init(firstLabel.length + secondLabel.length);\n        buf.append(firstLabel);\n        buf.append(secondLabel);\n\n        handleClaim(string(buf.buf), name, input, proof);\n    }\n\n    /**\n     * @dev Submits a claim for an exact match (eg, fooeth.test -> foo.eth).\n     *      Claimants must provide an amount of ether equal to 365 days'\n     *      registration cost; call `getClaimCost` to determine this amount.\n     *      Claimants should supply a little extra in case of variation in price;\n     *      any excess will be returned to the sender.\n     * @param name The DNS-encoded name of the domain being used to support the\n     *             claim.\n     * @param input Zero or more DNSSEC-signed RRSETs, in the format expected by\n     *              the DNSSEC oracle (https://github.com/ensdomains/dnssec-oracle/blob/0577b077a2e5454b4eb120cba595c69cf214b3b9/contracts/DNSSECImpl.sol#L129).\n     *              To be valid, the first entry must build off `proof`, and\n     *              the last entry must be a TXT record on `'_ens.' + name`.\n     *              If `input` is the empty string, `proof` is assumed to be the\n     *              required TXT record, and already known to the oracle.\n     * @param proof An RRSET already known to the DNSSEC oracle. If `input` is\n     *              supplied, this RRSET must validate the first entry of `input`.\n     *              If `input` is not supplied, this RRSET must be a TXT record\n     *              known to the oracle on `'_ens.' + name`, in the format\n     *              `a=0x...`.\n     */\n    function submitPrefixClaim(bytes memory name, bytes memory input, bytes memory proof) public payable {\n        bytes memory firstLabel = bytes(getLabel(name, 0));\n        require(firstLabel.equals(firstLabel.length - 3, bytes(\"eth\")));\n        handleClaim(string(firstLabel.substring(0, firstLabel.length - 3)), name, input, proof);\n    }\n\n    function approveClaim(bytes32 claimId) onlyOwner public {\n        Claim memory claim = claims[claimId];\n        require(claim.paid > 0, \"Claim not found\");\n\n        claimCount--;\n        delete claims[claimId];\n        emit ClaimApproved(claimId);\n\n        registrar.register(uint256(claim.labelHash), claim.claimant, REGISTRATION_PERIOD);\n        address(uint160(registrar.owner())).transfer(claim.paid);\n    }\n\n    function declineClaim(bytes32 claimId) onlyOwner public {\n        Claim memory claim = claims[claimId];\n        require(claim.paid > 0, \"Claim not found\");\n\n        claimCount--;\n        delete claims[claimId];\n        emit ClaimDeclined(claimId);\n\n        address(uint160(claim.claimant)).transfer(claim.paid);\n    }\n\n    function handleClaim(string memory claimed, bytes memory name, bytes memory input, bytes memory proof) internal {\n        uint len = claimed.strlen();\n        require(len >= 3 && len <= 6);\n\n        bytes32 claimId = computeClaimId(claimed, name);\n        require(claims[claimId].paid == 0, \"Claim already submitted\");\n\n        // Require that there are at most two labels (name.tld)\n        require(bytes(getLabel(name, 2)).length == 0, \"Name must be a 2LD\");\n\n        uint price = getClaimCost(claimed);\n        require(msg.value >= price, \"Insufficient funds for reservation\");\n        if(msg.value > price) {\n            msg.sender.transfer(msg.value - price);\n        }\n\n        if(input.length > 0) {\n          proof = oracle.submitRRSets(input, proof);\n        }\n\n        (address addr, bool found) = DNSClaimChecker.getOwnerAddress(oracle, name, proof);\n        require(found, \"No DNS record found\");\n\n        claims[claimId] = Claim(keccak256(bytes(claimed)), addr, price);\n        claimCount++;\n        emit ClaimSubmitted(claimed, name, price);\n    }\n\n    function getLabel(bytes memory name, uint idx) internal pure returns(string memory) {\n        // Skip the first `idx` labels\n        uint offset = 0;\n        for(uint i = 0; i < idx; i++) {\n            if(offset >= name.length) return \"\";\n            offset += name.readUint8(offset) + 1;\n        }\n\n        // Read the label we care about\n        if(offset >= name.length) return '';\n        uint len = name.readUint8(offset);\n        return string(name.substring(offset + 1, len));\n    }\n}\n",
  "sourcePath": "/home/user/Dropbox/projects/ethregistrar/contracts/ShortNameClaims.sol",
  "compiler": {
    "name": "solc",
    "version": "0.5.0+commit.1d4f565a.Emscripten.clang"
  },
  "schemaVersion": "3.0.9",
  "updatedAt": "2019-05-28T02:36:28.248Z",
  "devdoc": {
    "details": "ShortNameClaims is a contract that permits people to register claims     for short (3-6 character) ENS names ahead of the auction process. *      Anyone with a DNS name registered before January 1, 2019, may use this     name to support a claim for a matching ENS name. In the event that     multiple claimants request the same name, the name will be assigned to     the oldest registered DNS name. *      Claims may be submitted by calling `submitExactClaim`,     `submitCombinedClaim` or `submitPrefixClaim` as appropriate. *      Claims require lodging a deposit equivalent to 365 days' registration of     the name. If the claim is approved, this deposit is spent, and the name     is registered for the claimant for 365 days. If the claim is declined,     the deposit will be returned.",
    "methods": {
      "computeClaimId(string,bytes)": {
        "details": "Computes the claim ID for a submitted claim, so it can be looked up     using `claims`.",
        "params": {
          "claimed": "The name being claimed (eg, 'foo')",
          "dnsname": "The DNS-encoded name supporting the claim (eg, 'foo.test')"
        },
        "return": "The claim ID."
      },
      "getClaimCost(string)": {
        "details": "Returns the cost associated with placing a claim.",
        "params": {
          "claimed": "The name being claimed."
        },
        "return": "The cost in wei for this claim."
      },
      "isOwner()": {
        "return": "true if `msg.sender` is the owner of the contract."
      },
      "owner()": {
        "return": "the address of the owner."
      },
      "renounceOwnership()": {
        "details": "Allows the current owner to relinquish control of the contract."
      },
      "submitCombinedClaim(bytes,bytes,bytes)": {
        "details": "Submits a claim for an exact match (eg, foo.tv -> footv).     Claimants must provide an amount of ether equal to 365 days'     registration cost; call `getClaimCost` to determine this amount.     Claimants should supply a little extra in case of variation in price;     any excess will be returned to the sender.",
        "params": {
          "input": "Zero or more DNSSEC-signed RRSETs, in the format expected by             the DNSSEC oracle (https://github.com/ensdomains/dnssec-oracle/blob/0577b077a2e5454b4eb120cba595c69cf214b3b9/contracts/DNSSECImpl.sol#L129).             To be valid, the first entry must build off `proof`, and             the last entry must be a TXT record on `'_ens.' + name`.             If `input` is the empty string, `proof` is assumed to be the             required TXT record, and already known to the oracle.",
          "name": "The DNS-encoded name of the domain being used to support the            claim.",
          "proof": "An RRSET already known to the DNSSEC oracle. If `input` is             supplied, this RRSET must validate the first entry of `input`.             If `input` is not supplied, this RRSET must be a TXT record             known to the oracle on `'_ens.' + name`, in the format             `a=0x...`."
        }
      },
      "submitExactClaim(bytes,bytes,bytes)": {
        "details": "Submits a claim for an exact match (eg, foo.test -> foo.eth).     Claimants must provide an amount of ether equal to 365 days'     registration cost; call `getClaimCost` to determine this amount.     Claimants should supply a little extra in case of variation in price;     any excess will be returned to the sender.",
        "params": {
          "input": "Zero or more DNSSEC-signed RRSETs, in the format expected by             the DNSSEC oracle (https://github.com/ensdomains/dnssec-oracle/blob/0577b077a2e5454b4eb120cba595c69cf214b3b9/contracts/DNSSECImpl.sol#L129).             To be valid, the first entry must build off `proof`, and             the last entry must be a TXT record on `'_ens.' + name`.             If `input` is the empty string, `proof` is assumed to be the             required TXT record, and already known to the oracle.",
          "name": "The DNS-encoded name of the domain being used to support the            claim.",
          "proof": "An RRSET already known to the DNSSEC oracle. If `input` is             supplied, this RRSET must validate the first entry of `input`.             If `input` is not supplied, this RRSET must be a TXT record             known to the oracle on `'_ens.' + name`, in the format             `a=0x...`."
        }
      },
      "submitPrefixClaim(bytes,bytes,bytes)": {
        "details": "Submits a claim for an exact match (eg, fooeth.test -> foo.eth).     Claimants must provide an amount of ether equal to 365 days'     registration cost; call `getClaimCost` to determine this amount.     Claimants should supply a little extra in case of variation in price;     any excess will be returned to the sender.",
        "params": {
          "input": "Zero or more DNSSEC-signed RRSETs, in the format expected by             the DNSSEC oracle (https://github.com/ensdomains/dnssec-oracle/blob/0577b077a2e5454b4eb120cba595c69cf214b3b9/contracts/DNSSECImpl.sol#L129).             To be valid, the first entry must build off `proof`, and             the last entry must be a TXT record on `'_ens.' + name`.             If `input` is the empty string, `proof` is assumed to be the             required TXT record, and already known to the oracle.",
          "name": "The DNS-encoded name of the domain being used to support the            claim.",
          "proof": "An RRSET already known to the DNSSEC oracle. If `input` is             supplied, this RRSET must validate the first entry of `input`.             If `input` is not supplied, this RRSET must be a TXT record             known to the oracle on `'_ens.' + name`, in the format             `a=0x...`."
        }
      },
      "transferOwnership(address)": {
        "details": "Allows the current owner to transfer control of the contract to a newOwner.",
        "params": {
          "newOwner": "The address to transfer ownership to."
        }
      }
    }
  },
  "userdoc": {
    "methods": {
      "renounceOwnership()": {
        "notice": "Renouncing to ownership will leave the contract without an owner. It will not be possible to call the functions with the `onlyOwner` modifier anymore."
      }
    }
  }
}